{
  "contractName": "RegisterSystem",
  "abi": [
    {
      "constant": true,
      "inputs": [
        {
          "name": "",
          "type": "uint256"
        }
      ],
      "name": "tempArray",
      "outputs": [
        {
          "name": "",
          "type": "string"
        }
      ],
      "payable": false,
      "stateMutability": "view",
      "type": "function"
    },
    {
      "constant": true,
      "inputs": [],
      "name": "counter",
      "outputs": [
        {
          "name": "",
          "type": "uint256"
        }
      ],
      "payable": false,
      "stateMutability": "view",
      "type": "function"
    },
    {
      "constant": true,
      "inputs": [
        {
          "name": "",
          "type": "uint256"
        }
      ],
      "name": "registeredStudents",
      "outputs": [
        {
          "name": "",
          "type": "string"
        }
      ],
      "payable": false,
      "stateMutability": "view",
      "type": "function"
    },
    {
      "inputs": [],
      "payable": false,
      "stateMutability": "nonpayable",
      "type": "constructor"
    },
    {
      "constant": false,
      "inputs": [
        {
          "name": "addr",
          "type": "bytes32"
        },
        {
          "name": "studentName",
          "type": "string"
        }
      ],
      "name": "registerStudent",
      "outputs": [],
      "payable": true,
      "stateMutability": "payable",
      "type": "function"
    },
    {
      "constant": false,
      "inputs": [
        {
          "name": "addr",
          "type": "bytes32"
        },
        {
          "name": "courseCode",
          "type": "string"
        }
      ],
      "name": "registerCourse",
      "outputs": [],
      "payable": true,
      "stateMutability": "payable",
      "type": "function"
    },
    {
      "constant": false,
      "inputs": [
        {
          "name": "studentName",
          "type": "string"
        },
        {
          "name": "addr",
          "type": "bytes32"
        }
      ],
      "name": "transferStudent",
      "outputs": [],
      "payable": true,
      "stateMutability": "payable",
      "type": "function"
    },
    {
      "constant": false,
      "inputs": [
        {
          "name": "course",
          "type": "string"
        },
        {
          "name": "addr",
          "type": "bytes32"
        }
      ],
      "name": "transferCourse",
      "outputs": [],
      "payable": false,
      "stateMutability": "nonpayable",
      "type": "function"
    },
    {
      "constant": true,
      "inputs": [
        {
          "name": "addr",
          "type": "bytes32"
        }
      ],
      "name": "getCourses",
      "outputs": [
        {
          "name": "",
          "type": "string[]"
        }
      ],
      "payable": false,
      "stateMutability": "view",
      "type": "function"
    },
    {
      "constant": true,
      "inputs": [
        {
          "name": "name",
          "type": "string"
        }
      ],
      "name": "getStudentAddress",
      "outputs": [
        {
          "name": "",
          "type": "bytes32"
        }
      ],
      "payable": false,
      "stateMutability": "view",
      "type": "function"
    },
    {
      "constant": true,
      "inputs": [],
      "name": "getRegisteredStudents",
      "outputs": [
        {
          "name": "",
          "type": "string[]"
        }
      ],
      "payable": false,
      "stateMutability": "view",
      "type": "function"
    },
    {
      "constant": true,
      "inputs": [
        {
          "name": "addr",
          "type": "bytes32"
        }
      ],
      "name": "returnLengthCourses",
      "outputs": [
        {
          "name": "",
          "type": "uint256"
        }
      ],
      "payable": false,
      "stateMutability": "view",
      "type": "function"
    },
    {
      "constant": true,
      "inputs": [],
      "name": "lengthRegisteredStudents",
      "outputs": [
        {
          "name": "",
          "type": "uint256"
        }
      ],
      "payable": false,
      "stateMutability": "view",
      "type": "function"
    },
    {
      "constant": false,
      "inputs": [
        {
          "name": "x",
          "type": "uint256"
        }
      ],
      "name": "set",
      "outputs": [],
      "payable": false,
      "stateMutability": "nonpayable",
      "type": "function"
    },
    {
      "constant": true,
      "inputs": [],
      "name": "get",
      "outputs": [
        {
          "name": "",
          "type": "uint256"
        }
      ],
      "payable": false,
      "stateMutability": "view",
      "type": "function"
    }
  ],
  "bytecode": "0x608060405234801561001057600080fd5b5060046002819055506111ea806100286000396000f3006080604052600436106100d0576000357c0100000000000000000000000000000000000000000000000000000000900463ffffffff1680630160303c146100d55780631ccb5e90146101125780632c62bdb31461013b5780632dde7c671461015757806349eb16761461018257806360fe47b11461019e57806361bc221a146101c75780636d4ce63c146101f2578063721c522a1461021d5780637b2878db1461025a578063926c767a14610276578063a82e3b00146102b3578063f224d3c6146102f0578063f7ebd0121461032d575b600080fd5b3480156100e157600080fd5b506100fc60048036036100f79190810190610f47565b610358565b604051610109919061106f565b60405180910390f35b34801561011e57600080fd5b5061013960048036036101349190810190610ef3565b610413565b005b61015560048036036101509190810190610ef3565b61046f565b005b34801561016357600080fd5b5061016c610526565b6040516101799190611032565b60405180910390f35b61019c60048036036101979190810190610e5e565b61070d565b005b3480156101aa57600080fd5b506101c560048036036101c09190810190610f47565b6107c4565b005b3480156101d357600080fd5b506101dc6107ce565b6040516101e99190611091565b60405180910390f35b3480156101fe57600080fd5b506102076107d4565b6040516102149190611091565b60405180910390f35b34801561022957600080fd5b50610244600480360361023f9190810190610f47565b6107de565b604051610251919061106f565b60405180910390f35b610274600480360361026f9190810190610e5e565b610899565b005b34801561028257600080fd5b5061029d60048036036102989190810190610e35565b610901565b6040516102aa9190611091565b60405180910390f35b3480156102bf57600080fd5b506102da60048036036102d59190810190610eb2565b610929565b6040516102e79190611054565b60405180910390f35b3480156102fc57600080fd5b5061031760048036036103129190810190610e35565b61099d565b6040516103249190611032565b60405180910390f35b34801561033957600080fd5b50610342610be9565b60405161034f9190611091565b60405180910390f35b60048181548110151561036757fe5b906000526020600020016000915090508054600181600116156101000203166002900480601f01602080910402602001604051908101604052809291908181526020018280546001816001161561010002031660029004801561040b5780601f106103e05761010080835404028352916020019161040b565b820191906000526020600020905b8154815290600101906020018083116103ee57829003601f168201915b505050505081565b600160008260001916600019168152602001908152602001600020829080600181540180825580915050906001820390600052602060002001600090919290919091509080519060200190610469929190610bf6565b50505050565b806000836040518082805190602001908083835b6020831015156104a85780518252602082019150602081019050602083039250610483565b6001836020036101000a038019825116818451168082178552505050505050905001915050908152602001604051809103902081600019169055506003829080600181540180825580915050906001820390600052602060002001600090919290919091509080519060200190610520929190610bf6565b50505050565b60606000600460006105389190610c76565b600090505b6003805490508110156105ba57600460038281548110151561055b57fe5b9060005260206000200190806001815401808255809150509060018203906000526020600020016000909192909190915090805460018160011615610100020316600290046105ab929190610c97565b5050808060010191505061053d565b600460036001600380549050038154811015156105d357fe5b906000526020600020019080600181540180825580915050906001820390600052602060002001600090919290919091509080546001816001161561010002031660029004610623929190610c97565b50506004805480602002602001604051908101604052809291908181526020016000905b82821015610703578382906000526020600020018054600181600116156101000203166002900480601f0160208091040260200160405190810160405280929190818152602001828054600181600116156101000203166002900480156106ef5780601f106106c4576101008083540402835291602001916106ef565b820191906000526020600020905b8154815290600101906020018083116106d257829003601f168201915b505050505081526020019060010190610647565b5050505091505090565b816000826040518082805190602001908083835b6020831015156107465780518252602082019150602081019050602083039250610721565b6001836020036101000a0380198251168184511680821785525050505050509050019150509081526020016040518091039020816000191690555060038190806001815401808255809150509060018203906000526020600020016000909192909190915090805190602001906107be929190610bf6565b50505050565b8060028190555050565b60025481565b6000600254905090565b6003818154811015156107ed57fe5b906000526020600020016000915090508054600181600116156101000203166002900480601f0160208091040260200160405190810160405280929190818152602001828054600181600116156101000203166002900480156108915780601f1061086657610100808354040283529160200191610891565b820191906000526020600020905b81548152906001019060200180831161087457829003601f168201915b505050505081565b6001600083600019166000191681526020019081526020016000208190806001815401808255809150509060018203906000526020600020016000909192909190915090805190602001906108ef929190610bf6565b50506001600254016002819055505050565b6000600160008360001916600019168152602001908152602001600020805490509050919050565b600080826040518082805190602001908083835b602083101515610962578051825260208201915060208101905060208303925061093d565b6001836020036101000a0380198251168184511680821785525050505050509050019150509081526020016040518091039020549050919050565b60606000600460006109af9190610c76565b600090505b60016000846000191660001916815260200190815260200160002080549050811015610a6357600460016000856000191660001916815260200190815260200160002082815481101515610a0457fe5b906000526020600020019080600181540180825580915050906001820390600052602060002001600090919290919091509080546001816001161561010002031660029004610a54929190610c97565b505080806001019150506109b4565b6004600160008560001916600019168152602001908152602001600020600180600087600019166000191681526020019081526020016000208054905003815481101515610aad57fe5b906000526020600020019080600181540180825580915050906001820390600052602060002001600090919290919091509080546001816001161561010002031660029004610afd929190610c97565b50506004805480602002602001604051908101604052809291908181526020016000905b82821015610bdd578382906000526020600020018054600181600116156101000203166002900480601f016020809104026020016040519081016040528092919081815260200182805460018160011615610100020316600290048015610bc95780601f10610b9e57610100808354040283529160200191610bc9565b820191906000526020600020905b815481529060010190602001808311610bac57829003601f168201915b505050505081526020019060010190610b21565b50505050915050919050565b6000600380549050905090565b828054600181600116156101000203166002900490600052602060002090601f016020900481019282601f10610c3757805160ff1916838001178555610c65565b82800160010185558215610c65579182015b82811115610c64578251825591602001919060010190610c49565b5b509050610c729190610d1e565b5090565b5080546000825590600052602060002090810190610c949190610d43565b50565b828054600181600116156101000203166002900490600052602060002090601f016020900481019282601f10610cd05780548555610d0d565b82800160010185558215610d0d57600052602060002091601f016020900482015b82811115610d0c578254825591600101919060010190610cf1565b5b509050610d1a9190610d1e565b5090565b610d4091905b80821115610d3c576000816000905550600101610d24565b5090565b90565b610d6c91905b80821115610d685760008181610d5f9190610d6f565b50600101610d49565b5090565b90565b50805460018160011615610100020316600290046000825580601f10610d955750610db4565b601f016020900490600052602060002090810190610db39190610d1e565b5b50565b6000610dc38235611149565b905092915050565b600082601f8301121515610dde57600080fd5b8135610df1610dec826110d9565b6110ac565b91508082526020830160208301858383011115610e0d57600080fd5b610e1883828461115d565b50505092915050565b6000610e2d8235611153565b905092915050565b600060208284031215610e4757600080fd5b6000610e5584828501610db7565b91505092915050565b60008060408385031215610e7157600080fd5b6000610e7f85828601610db7565b925050602083013567ffffffffffffffff811115610e9c57600080fd5b610ea885828601610dcb565b9150509250929050565b600060208284031215610ec457600080fd5b600082013567ffffffffffffffff811115610ede57600080fd5b610eea84828501610dcb565b91505092915050565b60008060408385031215610f0657600080fd5b600083013567ffffffffffffffff811115610f2057600080fd5b610f2c85828601610dcb565b9250506020610f3d85828601610db7565b9150509250929050565b600060208284031215610f5957600080fd5b6000610f6784828501610e21565b91505092915050565b6000610f7b82611112565b80845260208401935083602082028501610f9485611105565b60005b84811015610fcd578383038852610faf838351610fed565b9250610fba82611128565b9150602088019750600181019050610f97565b508196508694505050505092915050565b610fe781611135565b82525050565b6000610ff88261111d565b80845261100c81602086016020860161116c565b6110158161119f565b602085010191505092915050565b61102c8161113f565b82525050565b6000602082019050818103600083015261104c8184610f70565b905092915050565b60006020820190506110696000830184610fde565b92915050565b600060208201905081810360008301526110898184610fed565b905092915050565b60006020820190506110a66000830184611023565b92915050565b6000604051905081810181811067ffffffffffffffff821117156110cf57600080fd5b8060405250919050565b600067ffffffffffffffff8211156110f057600080fd5b601f19601f8301169050602081019050919050565b6000602082019050919050565b600081519050919050565b600081519050919050565b6000602082019050919050565b6000819050919050565b6000819050919050565b6000819050919050565b6000819050919050565b82818337600083830152505050565b60005b8381101561118a57808201518184015260208101905061116f565b83811115611199576000848401525b50505050565b6000601f19601f83011690509190505600a265627a7a72305820dd8547daf79dc0189b052598e4982df7686f23f62ef5130f81ec1bf50669ad2d6c6578706572696d656e74616cf50037",
  "source": "\npragma solidity ^0.4.23;\npragma experimental ABIEncoderV2;\n\ncontract RegisterSystem {\n  //uint public storedData;\n\n  mapping (string => bytes32) studentAddresses;\n  mapping (bytes32 => string[]) arrayCourse;\n\n  uint public counter;\n\n  string[] public registeredStudents;\n  string[] public tempArray;\n\n  constructor() public {\n\n    counter = 4;\n\n  }\n\n  function registerStudent(bytes32 addr, string studentName) public payable{\n\n    studentAddresses[studentName] = addr;\n    registeredStudents.push(studentName);\n\n    //registeredStudents[msg.sender].push(studentName)\n    //arrayCourse[addr] = [];\n\n  }\n\n  function registerCourse(bytes32 addr, string courseCode) public payable {\n\n    arrayCourse[addr].push(courseCode);\n    counter = counter + 1;\n\n  }\n\n\n  function transferStudent(string studentName, bytes32 addr) public payable{\n    \n    studentAddresses[studentName] = addr;\n    registeredStudents.push(studentName);\n\n  }\n\n  function transferCourse(string course, bytes32 addr) public {\n    \n    arrayCourse[addr].push(course);\n\n  }\n\n  function getCourses(bytes32 addr) view public returns (string[]){\n    delete tempArray;\n    for(uint i = 0; i < arrayCourse[addr].length; i++){\n      tempArray.push(arrayCourse[addr][i]);\n    }\n    tempArray.push(arrayCourse[addr][arrayCourse[addr].length - 1]);\n    return tempArray;\n  }\n\n  function getStudentAddress(string name) view public returns (bytes32){\n    return studentAddresses[name];\n  }\n\n  function getRegisteredStudents() view public returns (string[]){ //Experimental Part\n    delete tempArray;\n    for(uint i = 0; i < registeredStudents.length; i++){\n      tempArray.push(registeredStudents[i]);\n    }\n    tempArray.push(registeredStudents[registeredStudents.length - 1]);\n    return tempArray;\n  }\n\n  function returnLengthCourses(bytes32 addr) view public returns (uint){\n    return arrayCourse[addr].length;\n  }\n\n  function lengthRegisteredStudents() view public returns (uint){\n    return registeredStudents.length;\n  }\n\n\n  function set(uint x) public {\n    counter =  x;\n  }\n\n  \n  function get() view public returns (uint) {\n    return counter;\n  }\n  \n\n  \n}",
  "sourcePath": "/Users/barinozmen/Desktop/cmpe492/CmpE_492Project/contracts/RegisterSystem.sol",
  "compiler": {
    "name": "solc",
    "version": "0.4.24+commit.e67f0147.Emscripten.clang"
  },
  "schemaVersion": "2.0.1",
  "updatedAt": "2019-01-07T20:54:10.473Z"
}