{
  "contractName": "RegisterSystem",
  "abi": [
    {
      "constant": true,
      "inputs": [
        {
          "name": "",
          "type": "uint256"
        }
      ],
      "name": "tempArray",
      "outputs": [
        {
          "name": "",
          "type": "string"
        }
      ],
      "payable": false,
      "stateMutability": "view",
      "type": "function"
    },
    {
      "constant": true,
      "inputs": [],
      "name": "counter",
      "outputs": [
        {
          "name": "",
          "type": "uint256"
        }
      ],
      "payable": false,
      "stateMutability": "view",
      "type": "function"
    },
    {
      "constant": true,
      "inputs": [
        {
          "name": "",
          "type": "uint256"
        }
      ],
      "name": "registeredStudents",
      "outputs": [
        {
          "name": "",
          "type": "string"
        }
      ],
      "payable": false,
      "stateMutability": "view",
      "type": "function"
    },
    {
      "inputs": [],
      "payable": false,
      "stateMutability": "nonpayable",
      "type": "constructor"
    },
    {
      "constant": false,
      "inputs": [
        {
          "name": "addr",
          "type": "bytes32"
        },
        {
          "name": "studentName",
          "type": "string"
        }
      ],
      "name": "registerStudent",
      "outputs": [],
      "payable": false,
      "stateMutability": "nonpayable",
      "type": "function"
    },
    {
      "constant": false,
      "inputs": [
        {
          "name": "addr",
          "type": "bytes32"
        },
        {
          "name": "courseCode",
          "type": "string"
        }
      ],
      "name": "registerCourse",
      "outputs": [],
      "payable": false,
      "stateMutability": "nonpayable",
      "type": "function"
    },
    {
      "constant": false,
      "inputs": [
        {
          "name": "studentName",
          "type": "string"
        },
        {
          "name": "addr",
          "type": "bytes32"
        }
      ],
      "name": "transferStudent",
      "outputs": [],
      "payable": false,
      "stateMutability": "nonpayable",
      "type": "function"
    },
    {
      "constant": false,
      "inputs": [
        {
          "name": "course",
          "type": "string"
        },
        {
          "name": "addr",
          "type": "bytes32"
        }
      ],
      "name": "transferCourse",
      "outputs": [],
      "payable": false,
      "stateMutability": "nonpayable",
      "type": "function"
    },
    {
      "constant": true,
      "inputs": [
        {
          "name": "addr",
          "type": "bytes32"
        }
      ],
      "name": "getCourses",
      "outputs": [
        {
          "name": "",
          "type": "string[]"
        }
      ],
      "payable": false,
      "stateMutability": "view",
      "type": "function"
    },
    {
      "constant": true,
      "inputs": [
        {
          "name": "name",
          "type": "string"
        }
      ],
      "name": "getStudentAddress",
      "outputs": [
        {
          "name": "",
          "type": "bytes32"
        }
      ],
      "payable": false,
      "stateMutability": "view",
      "type": "function"
    },
    {
      "constant": true,
      "inputs": [],
      "name": "getRegisteredStudents",
      "outputs": [
        {
          "name": "",
          "type": "string[]"
        }
      ],
      "payable": false,
      "stateMutability": "view",
      "type": "function"
    },
    {
      "constant": true,
      "inputs": [
        {
          "name": "addr",
          "type": "bytes32"
        }
      ],
      "name": "returnLengthCourses",
      "outputs": [
        {
          "name": "",
          "type": "uint256"
        }
      ],
      "payable": false,
      "stateMutability": "view",
      "type": "function"
    },
    {
      "constant": true,
      "inputs": [],
      "name": "lengthRegisteredStudents",
      "outputs": [
        {
          "name": "",
          "type": "uint256"
        }
      ],
      "payable": false,
      "stateMutability": "view",
      "type": "function"
    },
    {
      "constant": false,
      "inputs": [
        {
          "name": "x",
          "type": "uint256"
        }
      ],
      "name": "set",
      "outputs": [],
      "payable": false,
      "stateMutability": "nonpayable",
      "type": "function"
    },
    {
      "constant": true,
      "inputs": [],
      "name": "get",
      "outputs": [
        {
          "name": "",
          "type": "uint256"
        }
      ],
      "payable": false,
      "stateMutability": "view",
      "type": "function"
    }
  ],
  "bytecode": "0x608060405234801561001057600080fd5b506004600281905550611211806100286000396000f3006080604052600436106100d0576000357c0100000000000000000000000000000000000000000000000000000000900463ffffffff1680630160303c146100d55780631ccb5e90146101125780632c62bdb31461013b5780632dde7c671461016457806349eb16761461018f57806360fe47b1146101b857806361bc221a146101e15780636d4ce63c1461020c578063721c522a146102375780637b2878db14610274578063926c767a1461029d578063a82e3b00146102da578063f224d3c614610317578063f7ebd01214610354575b600080fd5b3480156100e157600080fd5b506100fc60048036036100f79190810190610f6e565b61037f565b6040516101099190611096565b60405180910390f35b34801561011e57600080fd5b5061013960048036036101349190810190610f1a565b61043a565b005b34801561014757600080fd5b50610162600480360361015d9190810190610f1a565b610496565b005b34801561017057600080fd5b5061017961054d565b6040516101869190611059565b60405180910390f35b34801561019b57600080fd5b506101b660048036036101b19190810190610e85565b610734565b005b3480156101c457600080fd5b506101df60048036036101da9190810190610f6e565b6107eb565b005b3480156101ed57600080fd5b506101f66107f5565b60405161020391906110b8565b60405180910390f35b34801561021857600080fd5b506102216107fb565b60405161022e91906110b8565b60405180910390f35b34801561024357600080fd5b5061025e60048036036102599190810190610f6e565b610805565b60405161026b9190611096565b60405180910390f35b34801561028057600080fd5b5061029b60048036036102969190810190610e85565b6108c0565b005b3480156102a957600080fd5b506102c460048036036102bf9190810190610e5c565b610928565b6040516102d191906110b8565b60405180910390f35b3480156102e657600080fd5b5061030160048036036102fc9190810190610ed9565b610950565b60405161030e919061107b565b60405180910390f35b34801561032357600080fd5b5061033e60048036036103399190810190610e5c565b6109c4565b60405161034b9190611059565b60405180910390f35b34801561036057600080fd5b50610369610c10565b60405161037691906110b8565b60405180910390f35b60048181548110151561038e57fe5b906000526020600020016000915090508054600181600116156101000203166002900480601f0160208091040260200160405190810160405280929190818152602001828054600181600116156101000203166002900480156104325780601f1061040757610100808354040283529160200191610432565b820191906000526020600020905b81548152906001019060200180831161041557829003601f168201915b505050505081565b600160008260001916600019168152602001908152602001600020829080600181540180825580915050906001820390600052602060002001600090919290919091509080519060200190610490929190610c1d565b50505050565b806000836040518082805190602001908083835b6020831015156104cf57805182526020820191506020810190506020830392506104aa565b6001836020036101000a038019825116818451168082178552505050505050905001915050908152602001604051809103902081600019169055506003829080600181540180825580915050906001820390600052602060002001600090919290919091509080519060200190610547929190610c1d565b50505050565b606060006004600061055f9190610c9d565b600090505b6003805490508110156105e157600460038281548110151561058257fe5b9060005260206000200190806001815401808255809150509060018203906000526020600020016000909192909190915090805460018160011615610100020316600290046105d2929190610cbe565b50508080600101915050610564565b600460036001600380549050038154811015156105fa57fe5b90600052602060002001908060018154018082558091505090600182039060005260206000200160009091929091909150908054600181600116156101000203166002900461064a929190610cbe565b50506004805480602002602001604051908101604052809291908181526020016000905b8282101561072a578382906000526020600020018054600181600116156101000203166002900480601f0160208091040260200160405190810160405280929190818152602001828054600181600116156101000203166002900480156107165780601f106106eb57610100808354040283529160200191610716565b820191906000526020600020905b8154815290600101906020018083116106f957829003601f168201915b50505050508152602001906001019061066e565b5050505091505090565b816000826040518082805190602001908083835b60208310151561076d5780518252602082019150602081019050602083039250610748565b6001836020036101000a0380198251168184511680821785525050505050509050019150509081526020016040518091039020816000191690555060038190806001815401808255809150509060018203906000526020600020016000909192909190915090805190602001906107e5929190610c1d565b50505050565b8060028190555050565b60025481565b6000600254905090565b60038181548110151561081457fe5b906000526020600020016000915090508054600181600116156101000203166002900480601f0160208091040260200160405190810160405280929190818152602001828054600181600116156101000203166002900480156108b85780601f1061088d576101008083540402835291602001916108b8565b820191906000526020600020905b81548152906001019060200180831161089b57829003601f168201915b505050505081565b600160008360001916600019168152602001908152602001600020819080600181540180825580915050906001820390600052602060002001600090919290919091509080519060200190610916929190610c1d565b50506001600254016002819055505050565b6000600160008360001916600019168152602001908152602001600020805490509050919050565b600080826040518082805190602001908083835b6020831015156109895780518252602082019150602081019050602083039250610964565b6001836020036101000a0380198251168184511680821785525050505050509050019150509081526020016040518091039020549050919050565b60606000600460006109d69190610c9d565b600090505b60016000846000191660001916815260200190815260200160002080549050811015610a8a57600460016000856000191660001916815260200190815260200160002082815481101515610a2b57fe5b906000526020600020019080600181540180825580915050906001820390600052602060002001600090919290919091509080546001816001161561010002031660029004610a7b929190610cbe565b505080806001019150506109db565b6004600160008560001916600019168152602001908152602001600020600180600087600019166000191681526020019081526020016000208054905003815481101515610ad457fe5b906000526020600020019080600181540180825580915050906001820390600052602060002001600090919290919091509080546001816001161561010002031660029004610b24929190610cbe565b50506004805480602002602001604051908101604052809291908181526020016000905b82821015610c04578382906000526020600020018054600181600116156101000203166002900480601f016020809104026020016040519081016040528092919081815260200182805460018160011615610100020316600290048015610bf05780601f10610bc557610100808354040283529160200191610bf0565b820191906000526020600020905b815481529060010190602001808311610bd357829003601f168201915b505050505081526020019060010190610b48565b50505050915050919050565b6000600380549050905090565b828054600181600116156101000203166002900490600052602060002090601f016020900481019282601f10610c5e57805160ff1916838001178555610c8c565b82800160010185558215610c8c579182015b82811115610c8b578251825591602001919060010190610c70565b5b509050610c999190610d45565b5090565b5080546000825590600052602060002090810190610cbb9190610d6a565b50565b828054600181600116156101000203166002900490600052602060002090601f016020900481019282601f10610cf75780548555610d34565b82800160010185558215610d3457600052602060002091601f016020900482015b82811115610d33578254825591600101919060010190610d18565b5b509050610d419190610d45565b5090565b610d6791905b80821115610d63576000816000905550600101610d4b565b5090565b90565b610d9391905b80821115610d8f5760008181610d869190610d96565b50600101610d70565b5090565b90565b50805460018160011615610100020316600290046000825580601f10610dbc5750610ddb565b601f016020900490600052602060002090810190610dda9190610d45565b5b50565b6000610dea8235611170565b905092915050565b600082601f8301121515610e0557600080fd5b8135610e18610e1382611100565b6110d3565b91508082526020830160208301858383011115610e3457600080fd5b610e3f838284611184565b50505092915050565b6000610e54823561117a565b905092915050565b600060208284031215610e6e57600080fd5b6000610e7c84828501610dde565b91505092915050565b60008060408385031215610e9857600080fd5b6000610ea685828601610dde565b925050602083013567ffffffffffffffff811115610ec357600080fd5b610ecf85828601610df2565b9150509250929050565b600060208284031215610eeb57600080fd5b600082013567ffffffffffffffff811115610f0557600080fd5b610f1184828501610df2565b91505092915050565b60008060408385031215610f2d57600080fd5b600083013567ffffffffffffffff811115610f4757600080fd5b610f5385828601610df2565b9250506020610f6485828601610dde565b9150509250929050565b600060208284031215610f8057600080fd5b6000610f8e84828501610e48565b91505092915050565b6000610fa282611139565b80845260208401935083602082028501610fbb8561112c565b60005b84811015610ff4578383038852610fd6838351611014565b9250610fe18261114f565b9150602088019750600181019050610fbe565b508196508694505050505092915050565b61100e8161115c565b82525050565b600061101f82611144565b808452611033816020860160208601611193565b61103c816111c6565b602085010191505092915050565b61105381611166565b82525050565b600060208201905081810360008301526110738184610f97565b905092915050565b60006020820190506110906000830184611005565b92915050565b600060208201905081810360008301526110b08184611014565b905092915050565b60006020820190506110cd600083018461104a565b92915050565b6000604051905081810181811067ffffffffffffffff821117156110f657600080fd5b8060405250919050565b600067ffffffffffffffff82111561111757600080fd5b601f19601f8301169050602081019050919050565b6000602082019050919050565b600081519050919050565b600081519050919050565b6000602082019050919050565b6000819050919050565b6000819050919050565b6000819050919050565b6000819050919050565b82818337600083830152505050565b60005b838110156111b1578082015181840152602081019050611196565b838111156111c0576000848401525b50505050565b6000601f19601f83011690509190505600a265627a7a72305820d0d78331ddcd8ba10f4095b4bfd2bb521e0ef441d1977806c680d4d1d19e47de6c6578706572696d656e74616cf50037",
  "source": "\npragma solidity ^0.4.23;\npragma experimental ABIEncoderV2;\n\ncontract RegisterSystem {\n  //uint public storedData;\n\n  mapping (string => bytes32) studentAddresses;\n  mapping (bytes32 => string[]) arrayCourse;\n\n  uint public counter;\n\n  string[] public registeredStudents;\n  string[] public tempArray;\n\n  constructor() public {\n\n    counter = 4;\n\n  }\n\n  function registerStudent(bytes32 addr, string studentName) public{\n\n    studentAddresses[studentName] = addr;\n    registeredStudents.push(studentName);\n\n    //registeredStudents[msg.sender].push(studentName)\n    //arrayCourse[addr] = [];\n\n  }\n\n  function registerCourse(bytes32 addr, string courseCode) public{\n\n    arrayCourse[addr].push(courseCode);\n    counter = counter + 1;\n\n  }\n\n\n  function transferStudent(string studentName, bytes32 addr) public {\n    \n    studentAddresses[studentName] = addr;\n    registeredStudents.push(studentName);\n\n  }\n\n  function transferCourse(string course, bytes32 addr) public {\n    \n    arrayCourse[addr].push(course);\n\n  }\n\n  function getCourses(bytes32 addr) view public returns (string[]){\n    delete tempArray;\n    for(uint i = 0; i < arrayCourse[addr].length; i++){\n      tempArray.push(arrayCourse[addr][i]);\n    }\n    tempArray.push(arrayCourse[addr][arrayCourse[addr].length - 1]);\n    return tempArray;\n  }\n\n  function getStudentAddress(string name) view public returns (bytes32){\n    return studentAddresses[name];\n  }\n\n  function getRegisteredStudents() view public returns (string[]){ //Experimental Part\n    delete tempArray;\n    for(uint i = 0; i < registeredStudents.length; i++){\n      tempArray.push(registeredStudents[i]);\n    }\n    tempArray.push(registeredStudents[registeredStudents.length - 1]);\n    return tempArray;\n  }\n\n  function returnLengthCourses(bytes32 addr) view public returns (uint){\n    return arrayCourse[addr].length;\n  }\n\n  function lengthRegisteredStudents() view public returns (uint){\n    return registeredStudents.length;\n  }\n\n\n  function set(uint x) public {\n    counter =  x;\n  }\n\n  \n  function get() view public returns (uint) {\n    return counter;\n  }\n  \n\n  \n}",
  "sourcePath": "/Users/barinozmen/workspace/CmpE_492Project/contracts/RegisterSystem.sol",
  "compiler": {
    "name": "solc",
    "version": "0.4.24+commit.e67f0147.Emscripten.clang"
  },
  "schemaVersion": "2.0.1",
  "updatedAt": "2019-01-06T13:34:01.586Z"
}